:100000000C9440000C945D000C945D000C94350140
:100010000C945D000C945D000C945D000C945D00EC
:100020000C945D000C945D000C945D000C945D00DC
:100030000C945D000C945F000C945D000C945D00CA
:100040000C945D000C945D000C945D000C945D00BC
:100050000C945D000C945D000C945D000C945D00AC
:100060000C945D000C945D0065016C018301B1018D
:10007000DA0103022C0255027E02A702D002F90225
:1000800011241FBECFEFD8E0DEBFCDBF11E0A0E04E
:10009000B1E0ECE5FFE002C005900D92A439B10794
:1000A000D9F721E0A4E9B1E001C01D92A93FB20750
:1000B000E1F70E946B000C94AC070C9400001F92B7
:1000C0000F920FB60F9211241092F2010F900FBEF3
:1000D0000F901F90189580E091E09093F601809327
:1000E000F5010E9453032E982698E8E6F0E08081FF
:1000F00081608083EBE6F0E0808180648083EFE6BE
:10010000F0E08081816080837894E1E8F0E0808194
:100110008160808345983D9AFFCFCF93DF93109203
:10012000F201C9E9D1E08881E5E9F1E080838981C4
:1001300081838A8182838B8183833A8128818EE0C7
:1001400091E09F938F931F923F931F922F9381E192
:1001500091E09F938F930E94CE04188219821A8295
:100160001B828DB79EB708960FB6F8949EBF0FBE40
:100170008DBFDF91CF910895E9E9F1E010821182FE
:1001800012821382E5E9F1E0108211821282138259
:100190001092F20110929F0108954598E9E9F1E06B
:1001A000938162818181508120919D0130919E01D6
:1001B0004091F20190951F929F931F926F938095AB
:1001C0001F928F931F925F933F932F931F924F9392
:1001D0008EE291E09F938F930E94CE040E94BC0018
:1001E0008DB79EB70E960FB6F8949EBF0FBE8DBF0B
:1001F0000895811102C0662331F08091F2018F5F72
:100200008093F20108950E94CD000895811102C0EB
:10021000662341F130919F01E091F201E695F0E013
:10022000E956FE4F208190E002C0880F991F3A9551
:10023000E2F7822B808380919F01873041F4809187
:10024000F2018F5F8093F20110929F0108958091D7
:10025000F20181508093F20180919F018F5F809322
:100260009F0108950E94CD0008951F920F920FB62E
:100270000F9211242F933F934F935F936F937F932C
:100280008F939F93AF93BF93EF93FF93E4E8F0E0D6
:100290008081918190939E0180939D0111821082B3
:1002A00080919D0190919E01883C910508F4EAC1DE
:1002B000E091F2018E2F90E08C30910508F0E0C1C2
:1002C000FC01EC5CFF4F0C9494048091F2018F5F71
:1002D0008093F201459AD6C180919D0190919E0133
:1002E0008037974168F080919D0190919E01813106
:1002F000974230F48091F2018F5F8093F201C2C186
:100300000E94CD00BFC180919D0190919E01883BCC
:100310009B4078F080919D0190919E018938934196
:1003200040F4109294018091F2018F5F8093F2016A
:10033000A9C180919D0190919E018830974070F0F5
:1003400080919D0190919E01893B9B4038F481E012
:10035000809394018BE08093F20194C10E94CD00C0
:1003600091C180919D0190919E01883C910550F032
:1003700080919D0190919E0161E08D3B924018F02B
:1003800060E001C060E0617080919D0190919E01EC
:10039000883C910550F020919D0130919E0181E0B3
:1003A0002D3B324018F080E001C080E081700E9457
:1003B000F90068C180919D0190919E01883C910552
:1003C00050F080919D0190919E0161E08D3B9240A3
:1003D00018F060E001C060E0617080919D01909133
:1003E0009E018C3D954050F020919D0130919E01E1
:1003F00081E0253A364018F080E001C080E081704D
:100400000E9406013FC180919D0190919E01883C10
:10041000910550F080919D0190919E0161E08D3B8E
:10042000924018F060E001C060E0617080919D0131
:1004300090919E01883C910550F020919D01309152
:100440009E0181E02D3B324018F080E001C080E049
:1004500081700E94F90016C180919D0190919E01CA
:10046000883C910550F080919D0190919E0161E042
:100470008D3B924018F060E001C060E061708091B7
:100480009D0190919E018C3D954050F020919D01E1
:1004900030919E0181E0253A364018F080E001C09D
:1004A00080E081700E940601EDC080919D019091D5
:1004B0009E01883C910550F080919D0190919E0194
:1004C00061E08D3B924018F060E001C060E0617037
:1004D00080919D0190919E01883C910550F0209162
:1004E0009D0130919E0181E02D3B324018F080E06B
:1004F00001C080E081700E94F900C4C080919D011C
:1005000090919E01883C910550F080919D019091C1
:100510009E0161E08D3B924018F060E001C060E018
:10052000617080919D0190919E018C3D954050F0AD
:1005300020919D0130919E0181E0253A364018F0CE
:1005400080E001C080E081700E9406019BC0809124
:100550009D0190919E01883C910550F080919D01F4
:1005600090919E0161E08D3B924018F060E001C0E7
:1005700060E0617080919D0190919E01883C9105A1
:1005800050F020919D0130919E0181E02D3B324041
:1005900018F080E001C080E081700E94F90072C014
:1005A00080919D0190919E01883C910550F0809131
:1005B0009D0190919E0161E08D3B924018F060E0BA
:1005C00001C060E0617080919D0190919E018C3D21
:1005D000954050F020919D0130919E0181E0253A97
:1005E000364018F080E001C080E081700E94060172
:1005F00049C080919D0190919E01883C9105E8F150
:1006000080919D0190919E018D3B9240B0F580912B
:1006100094018823B9F0E5E9F1E0928180811F928D
:100620009F931F928F938EE691E09F938F930E94EA
:10063000CE041092F2010F900F900F900F900F9038
:100640000F9020C0E9E9F1E02081818190E0820FE4
:10065000911D8F3F910571F42281838190E0820F7B
:10066000911D8F3F910519F40E948D000BC00E94CF
:10067000CD0008C00E94CD0005C00E94CD0002C080
:100680000E94CD00FF91EF91BF91AF919F918F910B
:100690007F916F915F914F913F912F910F900FBE7E
:1006A0000F901F9018958CE08093C40088E1809390
:1006B000C1000895CF93C82F873069F42091F701C6
:1006C0003091F80147E050E061E070E08BE891E0A4
:1006D0000E949A040CC08A3019F48DE00E945A03DB
:1006E000E0ECF0E0808185FFFDCFC093C60080E0A4
:1006F00090E0CF9108956F927F928F929F92AF92E8
:10070000BF92CF92DF92EF92FF920F931F93CF93FE
:10071000DF932091F0013091F101232B09F0DAC031
:100720008C010F2EF0EA8F2EF1E09F2EF02DC0EC01
:10073000D0E00F2EF6ECCF2ED12CF02D54010F2E41
:10074000FFE96F2EF1E07F2EF02D88818823ECF7F2
:10075000888184FDD2C0888183FDD2C0F60180816A
:100760008D3011F08A3069F48AE0F4018083B80199
:100770000E945A0380EA91E09093F1018093F00186
:10078000A9C0893039F090EE980F9F3520F0803A5B
:10079000B8F001C080E2FFEE8F16F1E09F0629F469
:1007A000B80187E00E945A03D0CF74019FEFE91A85
:1007B000F90AF4018083B8010E945A034701C5CFAA
:1007C0008231D1F130F4833009F49DC08830E9F0F2
:1007D000BCCF873129F08F37C1F0853179F0B5CFA3
:1007E000F0EA8F16F1E09F0609F008F4AECFF401AD
:1007F00031978081803209F052C0A7CF80EA8816F5
:1008000081E0980609F098F5A0CF90EA891691E06A
:10081000990609F008F499CFB80188E00E945A03BC
:10082000B80180E20E945A03B80188E00E945A038E
:10083000E1E08E1A910889CFB8018DE00E945A0339
:10084000F0EA8F16F1E09F0609F008F47ECF0F2E34
:10085000F0EAEF2EF1E0FF2EF02DB801F7018191C3
:100860007F010E945A038E149F04B9F76ECFB8011E
:1008700088E00E945A03B80180E20E945A03B8013E
:1008800088E00E945A03F1E08F1A910880EA8816E6
:1008900081E0980661F7F30131964F0156CF74015C
:1008A000F1E0EF1AF108B80188E00E945A03B8019C
:1008B00080E20E945A03B80188E00E945A0347016F
:1008C000EA14FB0409F441CFF70182917F018032E1
:1008D00051F73BCFE091F001F091F101CF0101968A
:1008E0009093F1018093F00180818A3021F410927D
:1008F000F1011092F00190E008C08EEF9FEF05C06B
:100900008FEF9FEF02C08FEF9FEFDF91CF911F918D
:100910000F91FF90EF90DF90CF90BF90AF909F909E
:100920008F907F906F900895EE0FFF1F0590F491C8
:10093000E02D0994A0E0B0E0E0EAF4E00C947B073D
:100940005B014A017901D90113962C9121FF1DC049
:10095000C0E0D0E0C815D905D9F08C016C01CA0CF3
:10096000DB1CC8010C151D0571F00F5F1F4FD7016F
:100970001896ED91FC911997B701DC018C910995BE
:10098000892B79F305C02196E5CF80E090E001C086
:10099000CE01CDB7DEB7ECE00C949707A0E0B0E055
:1009A000E4EDF4E00C948507AE014B5F5F4FFA0174
:1009B00061917191AF018091F5019091F6010E94D2
:1009C000E404E2E00C94A107ABE0B0E0EAEEF4E06E
:1009D0000C9475076C017B018A01FC011782168259
:1009E000838181FFCCC1CE0101963C01F601938148
:1009F000F70193FD859193FF81917F01882309F48D
:100A0000BAC1853239F493FD859193FF81917F01BD
:100A1000853229F4B60190E00E94DB06E7CF912CE5
:100A2000212C312CFFE1F315D8F08B3279F038F41A
:100A3000803279F08332A1F4232D20611DC08D32E4
:100A400061F0803369F4232D216016C0832D82600C
:100A5000382EE32DE4603E2E2AC0F32DF8601DC031
:100A600037FC2DC020ED280F2A3040F08E32B9F42B
:100A700036FC81C1232D2064322E19C036FE06C0FB
:100A80008AE0989E200D1124922E11C0EAE02E9E3D
:100A9000200D1124222EF32DF0623F2E08C08C363B
:100AA00021F4832D8068382E02C0883641F4F70186
:100AB00093FD859193FF81917F018111B3CF982F91
:100AC0009F7D9554933028F40C5F1F4F9FE39983CB
:100AD0000DC0833631F0833771F0833509F059C08A
:100AE00021C0F801808189830E5F1F4F8824839481
:100AF000912C530113C02801F2E04F0E511CF80154
:100B0000A080B18036FE03C0692D70E002C06FEF97
:100B10007FEFC5010E94D0064C018201F32DFF77C3
:100B20003F2E16C0280122E0420E511CF801A08081
:100B3000B18036FE03C0692D70E002C06FEF7FEF19
:100B4000C5010E94C5064C01F32DF0683F2E8201BD
:100B500033FC1BC0822D90E088169906B0F4B601D4
:100B600080E290E00E94DB062A94F4CFF50137FC86
:100B7000859137FE81915F01B60190E00E94DB060E
:100B800021102A9421E0821A91088114910471F7AE
:100B9000E8C0843611F0893641F5F80137FE07C008
:100BA00060817181828193810C5F1F4F08C06081D9
:100BB0007181072E000C880B990B0E5F1F4FF32DD0
:100BC000FF763F2E97FF09C09095809570956195AF
:100BD0007F4F8F4F9F4FF0683F2E2AE030E0A301F8
:100BE0000E941707882E861845C0853731F4232DBB
:100BF0002F7EB22E2AE030E025C0932D997FB92EAA
:100C00008F36C1F018F4883579F0B5C0803719F007
:100C1000883721F0B0C0E92FE061BE2EB4FE0DC0D0
:100C2000FB2DF460BF2E09C034FE0AC0292F2660B8
:100C3000B22E06C028E030E005C020E130E002C05E
:100C400020E132E0F801B7FE07C060817181828146
:100C500093810C5F1F4F06C06081718180E090E03E
:100C60000E5F1F4FA3010E941707882E8618FB2DC9
:100C7000FF773F2E36FE0DC0232D2E7FA22E891426
:100C800058F434FE0BC032FC09C0832D8E7EA82E92
:100C900005C0B82CA32C03C0B82C01C0B92CA4FEED
:100CA0000FC0FE01E80DF11D8081803321F49A2DE3
:100CB000997EA92E09C0A2FE06C0B394B39404C0C5
:100CC0008A2D867809F0B394A3FC11C0A0FE06C05B
:100CD000B21488F4280C922C9B180EC0B21460F445
:100CE000B60180E290E00E94DB06B394F7CFB21425
:100CF00018F42B1802C0982C212CA4FE10C0B601A9
:100D000080E390E00E94DB06A2FE17C0A1FC03C0B6
:100D100088E790E002C088E590E0B6010CC08A2D1B
:100D2000867859F0A1FE02C08BE201C080E2A7FCE8
:100D30008DE2B60190E00E94DB06891438F4B6011A
:100D400080E390E00E94DB069A94F7CF8A94F30147
:100D5000E80DF11D8081B60190E00E94DB06811054
:100D6000F5CF222009F442CEB60180E290E00E9445
:100D7000DB062A94F6CFF6018681978102C08FEFB9
:100D80009FEF2B96E2E10C949107FC0105906150D6
:100D900070400110D8F7809590958E0F9F1F089591
:100DA000FC016150704001900110D8F7809590953A
:100DB0008E0F9F1F08950F931F93CF93DF93FB0117
:100DC000238121FD03C08FEF9FEF2CC022FF16C0AF
:100DD00046815781248135814217530744F4A0810D
:100DE000B1819D012F5F3F4F318320838C932681FA
:100DF00037812F5F3F4F3783268314C08B01EC016F
:100E0000FB010084F185E02D0995892BE1F6D801DD
:100E100016968D919C911797019617969C938E9399
:100E20001697CE01DF91CF911F910F910895FA018E
:100E3000AA27283051F1203181F1E8946F936E7F19
:100E40006E5F7F4F8F4F9F4FAF4FB1E03ED0B4E00A
:100E50003CD0670F781F891F9A1FA11D680F791F4B
:100E60008A1F911DA11D6A0F711D811D911DA11D5C
:100E700020D009F468943F912AE0269F112430196C
:100E8000305D3193DEF6CF010895462F4770405D07
:100E90004193B3E00FD0C9F7F6CF462F4F70405DB6
:100EA0004A3318F0495D31FD4052419302D0A9F711
:100EB000EACFB4E0A6959795879577956795BA950B
:100EC000C9F700976105710508959B01AC010A2ED1
:100ED00006945795479537952795BA95C9F7620FA8
:100EE000731F841F951FA01D08952F923F924F924C
:100EF0005F926F927F928F929F92AF92BF92CF92AA
:100F0000DF92EF92FF920F931F93CF93DF93CDB7B2
:100F1000DEB7CA1BDB0B0FB6F894DEBF0FBECDBF2A
:100F200009942A88398848885F846E847D848C84FB
:100F30009B84AA84B984C884DF80EE80FD800C8104
:100F40001B81AA81B981CE0FD11D0FB6F894DEBFE7
:0C0F50000FBECDBFED010895F894FFCF57
:100F5C0000000003000000005A037B030000202067
:100F6C0000416464726573733A20257820202C202C
:100F7C0020446174613A20257825730D0A00696E4E
:100F8C0076616C69642073746174653A25752063AD
:100F9C006C6F636B3A25752062756666303A257501
:100FAC002062756666313A25752062756666323A3E
:100FBC0025752062756666333A25750D0A00416405
:100FCC0064726573733A20257820202C20204461AC
:100FDC0074613A20257820200D0A002A72696E6708
:040FEC002A0A0000CD
:00000001FF
